:060000000A128A11FA2F1A
:100F08007108F3007008F2000310F30CF20C0310E0
:100F1800F30CF20C72088312031395001708CF39EB
:100F280097007008F20003300310F20DFF3E031D16
:100F3800982F0310720D3039170497000800831694
:100F4800031387010C30831203139700FF308316B5
:100F5800031392000430831203139200F601F70181
:100F68007708F1007608F0000A128A1184270A121D
:100F78008A110D30F500FB30F400F40BC12FF50B8E
:100F8800C12FC62F0130F6070318F70A0030F707FC
:100F980003307702FF3003197602031CD42FD52FB4
:100FA800B42FFF30F6000330F7007708F100760819
:100FB800F0000A128A1184270A128A110D30F500EE
:100FC800FB30F400F40BE62FF50BE62FEB2F013086
:100FD800F6020030031CF703F70276087704031DB6
:100FE800F62FF72FD92F0A128A110028F601F701D8
:080FF80083010A128A11A32FE4
:02400E00FD3F74
:00000001FF
